:020000020000FC
:100000000FEF0DBF18E01EBF00E80093610003E092
:10001000009361000FE108B900E207B90FE304B9EA
:100020001CEF1AB930E040E070E00E941A000E9414
:100030002200FBCF06B100FF16C016B111FF17C09A
:1000400035B9089556B152FF16C066B163FF19C0A5
:100050007BB9089500E010E00A95F1F71A95E1F7F1
:10006000309BF8CFE2CF3F3001F33395F3CF303000
:10007000E1F23A95EFCF4F30C1F243950E9447002D
:10008000E9CF403091F24A950E944700E3CF742FA8
:06009000770F770F0895C1
:00000001FF
